:020000040040BA
:1000000040364020D90C4000D50C4000D50C4000B3
:10001000D50C4000D50C4000D50C4000000000007D
:10002000000000000000000000000000D50C4000AF
:10003000D50C400000000000D50C4000D50C40005D
:10004000D50C4000D50C4000D50C4000D50C40002C
:10005000D50C4000D50C4000D50C4000D50C40001C
:10006000D50C400000000000890940009D094000B7
:10007000B1094000D50C4000D50C4000D50C400023
:10008000C5094000D9094000D50C4000D50C4000FE
:10009000D50C4000D50C4000D50C4000551A40004E
:1000A000D50C4000D50C4000711A4000B11A400038
:1000B000E51A400039074000D50C4000D50C40003F
:1000C000D50C4000D50C4000D50C4000D50C4000AC
:1000D00000000000D50C400000000000D50C4000DE
:1000E0004D074000D50C4000D50C4000D50C400019
:1000F000D50C4000D50C4000D50C4000D50C40007C
:10010000D50C4000D50C4000D50C4000D50C40006B
:10011000D50C4000000000000000000000000000BE
:10012000D50C4000D50C4000D50C4000D50C40004B
:10013000D50C400000000000D50C4000D50C40005C
:1001400010B5054C237833B9044B13B10448AFF311
:1001500000800123237010BDB8094020000000007A
:10016000EC2343000C4B43B10C480D4910B5AFF3E1
:1001700000800C48036823B910BD0A48036833B9EE
:100180007047094B002BF7D0BDE810401847064BCD
:10019000002BF5D0184700BF00000000EC234300FF
:1001A000BC094020EC2343000000000008B50268B1
:1001B000034B1A604268034B1A60034B984708BD13
:1001C000D8094020D40940204D1B400008B5034BFE
:1001D000984700210846024B984708BD611B400024
:1001E0006116400010B50C4B1B68042B06D80B4B56
:1001F0009847002108460A4B984710BD094C2368D0
:1002000019780020064B9847236804332360024A7C
:100210001368043B136010BDD4094020611B4000EB
:1002200061164000D809402008B50248024B9847A3
:1002300008BD00BF7C1C4300AD01400008B502486A
:10024000024B984708BD00BF70C94200AD01400095
:1002500008B50248024B984708BD00BF7818410016
:10026000AD01400008B50248024B984708BD00BFE9
:1002700078184100AD01400008B50248024B98478C
:1002800008BD00BF74E84100AD01400008B5024858
:10029000024B984708BD00BF148F4200AD014000DB
:1002A00010B51048104B98473E2100200F4B98473F
:1002B0000F4CA0470028FCD00E4B98470E4A0F4B1E
:1002C0009A620F4CA0470028FCD002200D4B9847A3
:1002D00000200D4B98470D4B98470248024B98471A
:1002E00010BD00BF00A3E111AD0E4000890A40001F
:1002F000DD0A4000ED0A4000013F182000060E40D4
:10030000FD0A4000ED094000250A4000A10D400013
:10031000F8B54FF400426D4B5A60BFF34F8FBFF3F7
:100320006F8F6B4B0022C3F850225A6942F400329F
:100330005A61BFF34F8FBFF36F8FD3F88070C7F34D
:100340004E3607F007000430C7F3C907B7FA87FE37
:100350000EF01F0EBFF34F8F4FF0FF3404FA00FC76
:1003600006FA00F004FA0EF407FA0EFE1D463A46AD
:10037000734640EA0301C5F86012013A2344B2F122
:10038000FF3FF6D1013E6044B6F1FF3FEFD1BFF32E
:100390004F8F4F4B5A6942F480325A61BFF34F8FEF
:1003A000BFF36F8F4B4A4C495160A1F5807151608A
:1003B000BFF34F8FBFF36F8FD3F8902222F001026B
:1003C000C3F89022D3F8942222F00102C3F89422B9
:1003D000BFF34F8FBFF36F8F0A20404CA0470B2015
:1003E000A0470C20A0471020A0471120A0473C4B5D
:1003F0004FF480721A61C3F8A0201A63A3F58063DA
:100400004FF400625A61C3F8A0205A66C3F89020E6
:100410005A651A62C3F88420196F21F400611967C4
:10042000596F21F400615967C3F8C020C3F8D42084
:10043000C3F8B0204FF400121A66C3F890205A6532
:100440005A62C3F88020196F21F400111967596F9F
:1004500021F4001159675A602249D1F8142142F061
:100460001002C1F81421204A10211166C2F8901020
:1004700051655162C2F88010106F08431067506FC9
:100480000843506751604FF400021A66C3F8902089
:100490005A655A62C3F88020196F11431967596F62
:1004A00021F4000159675A604FF080721A66C3F850
:1004B00090205A655A62C3F88020196F114319675A
:1004C000596F21F0807159675A60F8BD50180E407D
:1004D00000ED00E0000C0E400C08005A0D0B40002F
:1004E00000120E400080084000100E4070B582B02F
:1004F000026BC36A1340019300241C4E1C4DA8429A
:1005000014BF0020012005010BE00E2C1ED8019A1B
:1005100004F10C0101238B40134210D10134102C43
:1005200022D00B2CF1D8019A0123A3401342F5D01D
:100530002B1956F82330002BF0D09847EEE72B19F3
:1005400056F82330002BE9D09847E7E7019A04F1E9
:100550000F0101238B401342E0D02B1956F82330B2
:10056000002BDBD09847D9E702B070BD980D402032
:100570000040064030B4046E01238B4024EA03049B
:100580001578002D08BF002323430366446D4B00FC
:100590000321994024EA010451789940214341659F
:1005A00030BC704700220260084B4360084B8360F8
:1005B0004FF48023C36002230374012343748374C4
:1005C000C274037543758375704700BF00A3E111C2
:1005D000808D5B000023037001234370704700008F
:1005E000026B12F0807201D01920704710B4012301
:1005F0000360CB7C002B18BF4FF000424B688C6827
:10060000B3FBF4F3013B1B029BB2CC6844F400043F
:1006100023430C7C240604F0706423434C7C2407A1
:1006200004F040542343134343600B7D002B14BF5D
:100630004FF0807300230A6813434A7D002A14BFD9
:100640004FF000720022134383608B7D1B0203F482
:10065000407343F00C03C0F894300F4B984206D01F
:100660000E4B98420DD000205DF8044B70470C4BA8
:1006700003F14001002243F8042F8B42FBD10020FC
:10068000F2E7084B03F14001002243F8042B8B42B0
:10069000FBD10020E8E700BF00C003400040064057
:1006A000940D4020D80D40200C4B994207D00B29C7
:1006B0000BD806D0012303FA01F14162704743626F
:1006C00070474FF40063436270470E2994BF0C31AA
:1006D0000F31012303FA01F141627047FF0F004718
:1006E00038B5114CA0420CBF102400240C440F4D0F
:1006F00045F824200AD10E4A4FF48074C2F8844190
:100700005B01DBB282F82833546009E0084A4FF0FD
:100710000054C2F880415B01DBB282F81D331460E3
:10072000044B984738BD00BF00400640980D40205C
:1007300000E100E0A906400008B50248024B9847D6
:1007400008BD00BF00C00340ED04400008B50248EA
:10075000024B984708BD00BF00400640ED04400032
:1007600000B583B0134B98420CBF28201D20124BBC
:100770009847124B9B78FF2B1AD0EFF31083B3FAF4
:1007800083F35B09019372B6BFF35F8F00220C4BBA
:100790001A700199094A93780133937029B10122A3
:1007A000074B1A70BFF35F8F62B603B05DF804FBAE
:1007B000FEE700BF004006400D0B4000900D4020BA
:1007C0000000402001230360704719B900234360F3
:1007D000002070474160FBE7006B7047063200EB7A
:1007E000820251607047000019B9044BC0F8E43030
:1007F0007047034BC0F8E430704700BF00434144EA
:1008000001434144022905D8012303FA01F10161A2
:100810000020704701207047C0F8941000207047F6
:10082000C0F8841053004FF40042B2FBF3F2013AD7
:10083000C2F30D02C0F88C20704721F00061B1F1C5
:10084000405F05D1836B134214BF01200020704725
:10085000C36BF8E7416412F0010F0DD1016612F08D
:100860000A0F0BD0016212F0020F09D112F0080F2B
:1008700008D0C0F8841005E04166F0E74162F2E775
:10088000C0F8801041610160704712F0100F12D063
:10089000C0F8B01012F0200F07D0C0F8D41012F03A
:1008A000400F05D0C0F8C0107047C0F8D010F6E770
:1008B000C0F8C4107047C0F8B410704701647047A6
:1008C000C06C7047806C70472DE9F0410446884643
:1008D0000E4B9847054620460D4B9847054013D0D0
:1008E0000C4C04F1600603E0B4420DD010345DB14D
:1008F00020684045F8D161682942F5D0E3689847FF
:10090000636825EA0305EFE7BDE8F081C108400010
:10091000C5084000DC094020F8B5184C2668062EB2
:100920002AD84FF0000C6446154F04E00134E4B2BD
:10093000A446A64209D3A64625017D598D42F5D18C
:1009400007EB04156D689542F0D10D4D4FEA0E1E70
:1009500005EB0E0445F80E106260A3600699E16095
:100960000136664505D011461A46064B98470020C9
:10097000F8BD02490E60F6E70120F8BD4C0A4020A0
:10098000DC0940208B08400008B50A210148024BD1
:10099000984708BD000E0E40C908400008B50B215D
:1009A0000148024B984708BD00100E40C90840009E
:1009B00008B50C210148024B984708BD00120E40B3
:1009C000C908400008B510210148024B984708BDEE
:1009D00000140E40C908400008B511210148024B1F
:1009E000984708BD00160E40C9084000032811D0E2
:1009F000042812D002280CBF4FF480710021084A4D
:100A0000136B23F440730B431363936E13F0080FBF
:100A1000FBD070474FF44071F1E74FF40071EEE7FF
:100A200000060E40174A136B23F07003184310633F
:100A3000936E13F0080F0AD14FF4805311498A6E58
:100A400012F0080F03D1013BF9D1012070470D4A84
:100A5000136B23F0030343F002031363936E13F04D
:100A6000080F0AD14FF4805306498A6E12F0080F1E
:100A700005D1013BF9D101207047002070470020CB
:100A8000704700BF00060E40A0B90E48036A090275
:100A900089B20D4A1A400D4B1343194301620246B5
:100AA000936E13F0010FFBD0064A116A084B0B43FB
:100AB0001362704703490B6A064A1A40064B1343F8
:100AC0000B62704700060E40FCFFC8FF01003700B4
:100AD00000003701FCFFC8FE02003701024B986E90
:100AE00000F48030704700BF00060E404FF0005207
:100AF000014B9A62704700BF00060E40024B986E91
:100B000000F00200704700BF00060E403F281ED8CC
:100B10001F280CD8114B9A6901238340934318D0A6
:100B2000012303FA00F00D4B1861002070472038B4
:100B30000A4BD3F808210123834093430BD00123B0
:100B400003FA00F0054BC3F80001002070470120B4
:100B50007047002070470020704700BF00060E401D
:100B600008B5074B984203D0064B984204D008BD05
:100B70001520054B984708BD2A20034B9847F6E7F8
:100B800000800040008005400D0B400032B900EBB2
:100B90008100036B23F001030363704700EB8100C6
:100BA000036B43F001030363704732B900EB81002C
:100BB000036B23F002030363704700EB8100036BB8
:100BC00043F002030363704700EB81010B6B23F0DA
:100BD000F0030B630B6B1A430A6370477AB110B4CE
:100BE000144600EB81010B6B23F47F430B630A6B0C
:100BF00042EA04220A6300205DF8044B70474FF07C
:100C0000FF30704710B400EB8101086B80B20863BD
:100C10000C6B44EA036343EA02430B635DF8044B45
:100C2000704710B489014318022444504FF0FF313B
:100C30009962196A5A605DF8044B7047890105236F
:100C400043507047890102234350704700EB8111E4
:100C5000CA61704700EB81114A62704700EB811155
:100C6000086A7047F0B486B0022401940824029404
:100C700020240394802404940A9CE40B0594B0EB94
:100C8000510F14D84C0CA04217D2012501AF57F8D0
:100C90002540B1FBF4F4260C84420AD386420DD9D8
:100CA0000135052DF3D1002006B0F0BC70470020BF
:100CB000FAE70020F8E70120F6E700252AB106A9A7
:100CC00001EB850151F8141C1160002BF3D01D605D
:100CD0000120E9E7FEE7000000B583B0254B264A76
:100CE0009A4210D0254B234A9A420CD2013B9B1AC0
:100CF00023F00303043313441F4951F8040B42F853
:100D0000040B9A42F9D11E4B1E4A9A420AD2013B69
:100D10009B1A23F0030304331344002142F8041BFD
:100D20009342FBD1184A194B23F07F039360EFF3F2
:100D30001083B3FA83F35B09019372B6BFF35F8F3D
:100D40000022134B1A700199124A136843F470037E
:100D50001360BFF34F8FBFF36F8F29B101220C4B8C
:100D60001A70BFF35F8F62B60B4B98470B4B9847D7
:100D7000FEE700BF00004020EC234300B8094020FC
:100D800040164020B809402000ED00E0000040007F
:100D90000000402088ED00E01D254000C9234000F0
:100DA0003B4B1B6B03F00303012B1DD083B1022BC4
:100DB00036D0374B1B6B03F07003702B5FD0344B76
:100DC0001A6B3449C2F302120B68D3400B607047B0
:100DD000314B5B6913F0800F14BF4FF400424FF4A6
:100DE000FA422C4B1A60E4E7294B1B6A13F0807F10
:100DF00003D02A4A274B1A60DBE7294A254B1A60A1
:100E0000234B1B6A03F07003102B05D0202BD0D18D
:100E1000224A204B1A60CCE7224A1E4B1A60C8E7D0
:100E20001B4B1B6A13F0807F16D01C4A194B1A60AB
:100E3000174B1B6B03F00303022BBAD1144A916AC0
:100E4000926A1448C1F30A41036801FB0333D2B22A
:100E5000B3FBF2F30360ACE7114A0E4B1A600C4B84
:100E60001B6A03F07003102B05D0202BE0D10B4A36
:100E7000084B1A60DCE70B4A064B1A60D8E7054AB4
:100E800013680949A1FB03135B081360704700BF97
:100E900000060E400400402010180E40001BB70052
:100EA00000093D0000127A00ABAAAAAA164B98428C
:100EB00013D9164B984215D9154B984216D9154B94
:100EC000984217D9144B984218D9144B984294BFA2
:100ED000134A144A144B1A6070474FF08062124B49
:100EE0001A607047114A104B1A607047104A0E4B37
:100EF0001A6070470F4A0C4B1A6070474FF004227B
:100F0000094B1A60704700BFBFF35E017FE7BD0267
:100F10003FDB1C04FFCE7B05BFC2DA067FB6390873
:100F20000005000400060004000C0E40000100044F
:100F300000020004000300040A4B1B6853B1094B74
:100F40001B681A180849914208DB1046054A1060D0
:100F500018467047054A034B1A60F0E74FF0FF3020
:100F6000704700BF500A4020FCFF45204038402019
:100F700082B00190019B2BB1019B013B0193019B2E
:100F8000002BF9D102B0704708B54FF40072024B44
:100F90005A63024B984708BD00120E40D11840001A
:100FA00008B54FF40072024B1A63024B984708BD14
:100FB00000120E40D118400008B54FF40072024BE9
:100FC0001A63024B984708BD00120E40ED1840000E
:100FD000F8B5064C4FF400352563054F3846054EED
:100FE000B04765633846B0472563F8BD000E0E4034
:100FF000A0860100710F40000422014B1A63704764
:10100000000E0E4010B5A420024CA047AF20A04710
:1010100010BD00BF890F4000072800D9704708B5F0
:1010200040F0B000014B984708BD00BF890F400059
:1010300010F0800F0AD138B50446000940F01000C6
:10104000034DA84704F00F00A84738BD704700BF04
:10105000890F400008B54FF48062014B984708BDE6
:10106000A12640002DE9F843054601460B480C4BEC
:1010700098470027DFF83090DFF83080094EF8B24B
:10108000C8470020C04780242846B047013CFBD118
:101090000137082FF3D1BDE8F88300BF18124020B4
:1010A00055104000A10F40001910400031104000C1
:1010B00070B50A20274CA0470C20A0471020A0475D
:1010C000254B04241C61C3F8A04024494FF4007050
:1010D0000861C1F8A0004FF400321A61C3F8A020E3
:1010E0005C6348635A631A631D4E30461D4DA84722
:1010F0001D4B98473046A84740201C4CA047A020D5
:10110000A047C820A047A620A047A220A0472F2084
:10111000A047F820A0470020A0472720A047812013
:10112000A0470020A047AC20A0470020A047AF2048
:10113000A0473046A847A520A0473046A8473046DC
:10114000A847A420A0470020094B9847094B98477F
:1011500070BD00BF0D0B4000000E0E4000120E408F
:10116000A0860100710F4000D10F4000890F4000A0
:1011700065104000051040002DE9F04105460024AF
:10118000DFF82880074F084E0020C047E0B2B8477C
:1011900080212846B04701348035082CF4D1BDE8C1
:1011A000F08100BF19104000B90F4000311040001D
:1011B0002DE9F04F87B002911446049200F0070029
:1011C0004FEAC01B364B98470020364B9847237890
:1011D000002B62D0002300930193DFF8D4A010E02D
:1011E000039B009A1344DBB219460093019B013321
:1011F000DBB20193049AD418D35C002B4DD07E2926
:101200004BD8009D2846274B98472378264A1A44F6
:1012100012F8201C029A0832521AD2B20392AA186B
:101220007E2ADDDCA3F11B06F6B2013EF600C1F119
:101230000801CBB205939846C3B11C4B1E44002451
:10124000DFF870900BEB0405ADB216F8017B384661
:10125000D04709F8057001344445F3D10BF1010B77
:10126000059B013B13FA8BFB1FFA8BFB029B1F466E
:10127000002BB5D000242646DFF838800BEB0405A0
:10128000ADB23046D04708F805600134BC42F5D114
:10129000029B9B441FFA8BFBA2E707B0BDE8F08FCF
:1012A00019104000311040009C204300841D430071
:1012B000A10F4000181240202DE9F04F87B0029195
:1012C00015461C4600F007004FEAC01B364B9847F6
:1012D0000020364B9847002C62D06B1E0193013CD6
:1012E00055FA84F3049300230093DFF8CCA008E0C0
:1012F000039B009A1344DBB20093019B049A934230
:101300004ED0009C2046294B9847019A12F8013F85
:101310000192274A1A4412F8201C029A0832521AE3
:10132000D2B20392A2187E2AE2DCA3F11B06F6B227
:10133000013EF600C1F10801CBB205939846C3B156
:101340001C4B1E440024DFF874900BEB0405ADB277
:1013500016F8017B3846D04709F80570013444453A
:10136000F3D10BF1010B059B013B13FA8BFB1FFA29
:101370008BFB029B1F46002BBAD000242646DFF8C9
:101380003C800BEB0405ADB23046D04708F8056051
:101390000134BC42F5D1029B9B441FFA8BFBA7E7AB
:1013A00007B0BDE8F08F00BF1910400031104000B9
:1013B0009C204300841D4300A10F400018124020D0
:1013C0007F282ED83F292CD8F8B5CE0800EBC614BC
:1013D000A4B207290DD8C9B2124D2F5D012A0FD032
:1013E000012505FA01F127EA01070E4A175573B9DD
:1013F000F8BD11F0070F14BF01F007010021EBE762
:10140000012505FA01F141EA0705EFB2EDE7C0B2A7
:10141000054B9847F0B2054B98473846044B984720
:10142000E6E77047181240203110400019104000C4
:10143000A10F40002DE9F04F87B005900291914631
:101440000193127899F80130002B35D0D20804921C
:101450000A460B4403930027DFF8648021E00BF178
:10146000080B0137574515D0D9F80430DE5D5D46CD
:10147000072446FA04F313F0010F019B0CBF00226E
:1014800001220099A8B2C0470135013CB4F1FF3FE9
:10149000EFD1E4E75746029B01330293039A9A4245
:1014A0000AD0049B002BF6D007EB030ADDF814B03A
:1014B000BDF808300093D7E707B0BDE8F08F00BF54
:1014C000C1134000044B06225A669A6E034B1A6001
:1014D0000122034B1A70704700400640540A402016
:1014E000580A402030B589B00C20184B984700228C
:1014F0004FF000411648174B9847174C2046174BA2
:10150000984702A8164B984702A92046154B9847C2
:10151000636843F08003636001A8134B984700237E
:101520008DF8053001AA06212046104B9847062168
:1015300061664FF40073E36601230D4A20460D4DAA
:10154000A8474023636109B030BD00BF0D0B4000C8
:1015500000120E4055084000004006406107400060
:10156000A5054000E1054000D50540007505400097
:10157000C5144000E1064000C9B170B40E466FF0DA
:1015800040440C4400EB840400250DE00433A342E6
:1015900006D01A6859688A42F8D919605A60F5E786
:1015A0000135043CAE4201D00346F0E770BC704701
:1015B00030B587B0002301930293039304930593FE
:1015C00001A906AD0D4A4FF000040D4814701378C0
:1015D000002BFCD0036841F8043BA942F6D1052159
:1015E00001A8084B98470398029B1844049B184491
:1015F000054BA3FB0030400807B030BD580A40201F
:10160000540A402079154000ABAAAAAA38B51E207A
:101610000C4B98470C4C20460C4B98470021204619
:101620000B4B9847002120460A4B98470021204643
:10163000094DA84701212046A8470A212046074B0B
:10164000984738BD0D0B400000000440C50740001E
:10165000E9074000CB07400005084000190840009A
:1016600038B504460D460D480D4B984754B910F057
:10167000010F00D138BD0022C5F30B010748094B0B
:10168000984738BD012CF5D110F0020FF2D001229D
:10169000C5F30B010148034B9847EBE700000440FA
:1016A000D9074000DD0740000A280DD1B1F5006FD1
:1016B0000AD108B5054B98474FF400624FF020510E
:1016C0000348044B984708BD704700BF211F4000E6
:1016D000000E0E403B08400010B50A20054CA04704
:1016E0000C20A047044B4FF480721A61C3F8A0206D
:1016F0005A6310BD0D0B400000120E4030B583B090
:101700000A20154B9847154C01224FF400612046E2
:10171000134B9847134A4FF400612046124B9847E9
:10172000124B009350234FF400620A212046104DC3
:10173000A8474FF4006120460E4B98470E4B4FF4DC
:101740008062C3F88020C3F88021E02183F80A1367
:101750001A6003B030BD00BF0D0B4000000E0E40FC
:101760005508400040420F0021084000A9164000E3
:1017700019094000BD08400000E100E030B583B029
:101780003C4B4FF480121A66C3F890205A655A6297
:10179000C3F88020196F11431967596F21F4801124
:1017A00059675A604FF400121A66C3F890205A65C0
:1017B0005A62C3F88020196F11431967596F21F4D9
:1017C000001159675A604FF480021A66C3F89020DE
:1017D0005A655A62C3F88020196F11431967596F0F
:1017E00021F4800159675A604FF000721A61C3F802
:1017F000A0201A63204C2046204B984702232360E8
:10180000802323604FF080732360636843F00103FB
:101810006360636843F01003636001220021204687
:10182000174B9847002211462046164B9847002236
:1018300011462046144B984700250195134B019300
:10184000019A03F1685303F52C1303F60353A3FB2A
:101850000232C2F34742294620460D4B98471023D7
:101860004022294620460B4DA8470123236003B0A0
:1018700030BD00BF00140E4000800040610B4000EE
:101880008D0B4000AB0B4000C90B400080D1F0082D
:10189000DD0B4000050C40000C4A136913F4007F77
:1018A000FBD00A4A136913F0020FFBD0074BD86034
:1018B0001A46136913F0020FFBD0044940F20122CB
:1018C0000B6932EA0303FBD1704700BF0080004080
:1018D00038B5044C4FF000756563034B984725639A
:1018E00038BD00BF00140E40991840004FF0007240
:1018F0000B4B5A6371B170B50D4604460544094E51
:1019000014F8010BB047AC42FAD14FF00072044B0F
:101910001A6370BD4FF00072014B1A63704700BF2D
:1019200000140E409918400082B00022044B1A6047
:10193000019019460A68019B9A42FBD302B0704796
:101940005C0A402030B585B01720164B9847164CDE
:10195000009402AB03AA21464FF47A70134DA847B6
:10196000039AB4FBF2F4124AA2FB0432114C920B1C
:1019700000212046104B9847029A42F480420021F1
:1019800020460E4B98474FF400020D4B1A60102270
:10199000002120460B4B9847002120460A4B9847D0
:1019A00005B030BD0D0B400000A3E111650C4000F7
:1019B0005172A6BE00C000404D0C4000230C4000F8
:1019C00000E100E0550C40003D0C400030B585B012
:1019D0001A20164B9847164C009402AB03AA2146D6
:1019E0004FF47A70134DA847039AB4FBF2F4124AED
:1019F000A2FB0432114CD20900212046104B98471B
:101A0000029A42F48042002120460E4B98474FF044
:101A100080620D4B1A601022002120460B4B984724
:101A2000002120460A4B984705B030BD0D0B400001
:101A300000A3E111650C4000D34D6210000001408D
:101A40004D0C4000230C400000E100E0550C40002C
:101A50003D0C400008B5034B984700210248034B5A
:101A6000984708BDE501400000C000405D0C400003
:101A700008B50B4BDB6B13F4002F0CD14FF4002295
:101A8000074B1A63074A13680133136000210648A5
:101A9000064B984708BD4FF40022014B5A63F1E70B
:101AA00000120E405C0A4020000001405D0C400026
:101AB00008B5094BDB6B13F4006F08D14FF40062DB
:101AC000054B1A6301210548054B984708BD4FF4A3
:101AD0000062014B5A63F5E700140E40000001401C
:101AE0005D0C400008B5124BDB6B13F0006F11D09A
:101AF0004FF000620E4B5A630E4B1B787BB10021F6
:101B00000C4B19700C480D4B984702210C480D4B9B
:101B1000984708BD4FF00062054B1A63ECE70122BD
:101B2000044B1A7000210448074B9847EDE700BFAB
:101B300000140E40600A402000C00040450C4000E8
:101B4000000001405D0C40003D0C400008B5002144
:101B50000148024B984708BD00C000403D0C4000C2
:101B600008B500210148024B984708BD00C000405D
:101B7000450C400008B5144B984780B2B0F5167F6D
:101B800001D2022008BDA0F516739BB2B3F52F7FDA
:101B900001D2042008BDA0F214539BB2B3F52F7FED
:101BA00010D3A0F5FA639BB2B3F57A7F01D203207C
:101BB00008BDA0F6B83080B2B0F5FA7F34BF00207F
:101BC000052008BD012008BDB115400082B001907C
:101BD000019B2BB1019B013B0193019B002BF9D190
:101BE00002B07047064B05221A70064A5A613C2122
:101BF0005960322199601178D96052781A61704722
:101C00007C0C40207C1D43002DE9F04F83B01B4B22
:101C10001A785B789346009301934FF0000E734659
:101C20009246174C4FF00109DFF850804FF01E0C20
:101C300076469F1DFFB200203A4677469646D90069
:101C4000CD1A04EB850204F82590C2F81880A2F89A
:101C500014C050609760C2F80CB0009D1561967575
:101C6000D6750133DBB250447345E8D1BE46019AC4
:101C700096440C2BDDD103B0BDE8F08FA41C4300CB
:101C8000640A402070B40D4B1D785C780C4B0D4AF3
:101C900003F1C00600210948197058615960996024
:101CA000DD601C611170506151609160D5601461FC
:101CB00018331832B342EFD170BC7047541D430043
:101CC000B40B4020940C402008B50023074A137041
:101CD000074A13800122074B1A80074B9847074B8E
:101CE0009847074B9847074B984708BD540D40202D
:101CF000780C4020740C4020E51B4000091C40007B
:101D0000851C40003D27400008B5134B984702282A
:101D10000BD0032811D0114B32229A605B68032B41
:101D200013D804220D4B5A6008BD0C4B5B68082B7E
:101D3000F1D9043B094A5360EDE7084B5B68712B0E
:101D4000E9D80433054A5360E5E76E2B02D96E22C9
:101D5000024B5A6008BD00BF751B40007C0C402040
:101D600070B44B4800F5A87402460AE05568D36881
:101D70002B44772B02D81378012B0ED01C32A242B1
:101D80000ED0937D012BF1D053680A2BF6D915782C
:101D9000012DF3D1023B5360F0E702355560EDE7CA
:101DA0000346002502E01C33934209D05968DC68E1
:101DB00021447729F7D91978012908BF0125F2E7CD
:101DC000012D02D00246002409E00246002191754F
:101DD0001C329A42FBD1F5E71C329A4207D0516877
:101DE0000A29F9D81178012908BF0124F4E7012C48
:101DF00002D00246002520E00246012608E0916854
:101E0000082902D91578012D11D01C329A42F0D040
:101E10009675D17D0029F2D19568116929442F2941
:101E2000F3D811780129F0D101359560EDE701393A
:101E30009160EAE71C329A4209D091681469214402
:101E40002F29F7D91178012908BF0125F2E7012DC3
:101E500002D00246002409E002460121D1751C325D
:101E60009A42FBD1F5E71C329A4207D091680829C3
:101E7000F9D81178012908BF0124F4E7012C01D019
:101E800070BC70470022C2751C309842FBD1F7E746
:101E9000640A4020074B1B7853B1064B01201A7E81
:101EA0003AB1013018330828F9D14FF0FF307047AC
:101EB00000207047940C402070B50C4B98470C4B99
:101EC00041000A18D2009C1801259D54094DEE6866
:101ED0006A6802EB5602E668A2EB56026260AA68E4
:101EE0002369D31AA360044B984770BD951E400028
:101EF000940C40207C0C402029024000074B1B78AA
:101F000053B1064B01201A7E3AB10130183308282C
:101F1000F9D14FF0FF30704700207047B40B4020DC
:101F20000122014B1A707047540D4020014B187864
:101F3000704700BF540D40200022014B1A707047BB
:101F4000540D4020014B1878704700BF760C40209C
:101F50000022014B1A707047760C4020014B188804
:101F6000704700BF740C40200023184604495A5C97
:101F7000012A08BF01301C33B3F5A87FF7D17047A1
:101F8000640A4020F8B505460C460E4B98470E4FA4
:101F90000E49E800431B9B00CE18B28AB7F800E058
:101FA00072443A800022CA540123B375F275084B7B
:101FB00061000819C0001D181A546A60AA60054B18
:101FC0009847F8BD65024000780C4020640A402024
:101FD000940C4020691F400010B50F4B9847041E19
:101FE00017DD0E4B984790FBF4F303FB140400231A
:101FF00018460B4903E01C33B3F5A87F06D05A5CA2
:10200000012AF8D1844206D00130F4E74FF0FF30C6
:1020100010BD4FF0FF3010BD691F40003D2740004C
:10202000640A4020F8B5144B98470646134B98476E
:1020300000281FDB124B7700BA19D20003EB020E07
:1020400001219954DFF840C0C5002A1A0CEB820226
:102050005168D46801EB5401DEF80C40A1EB540147
:10206000CEF804101446926821690A44CEF808207C
:10207000044B9847F8BD00BFFD1E4000D91F40002B
:10208000B40B40203D024000640A4020064B1B7800
:1020900003B9704710B5044800234269816840685D
:1020A000024CA04710BD00BF7C0C402035144000FE
:1020B000F8B5094C04F5A8750027084E02E01C3459
:1020C000AC4208D02378012BF9D13B46A269A16824
:1020D0006068B047F3E7F8BD640A4020351440005B
:1020E0002DE9F0410F4C104D04F1C0064FF00008EF
:1020F0000E4F09E043466269A1686068B84706E090
:1021000018341835B4420BD02378012BF2D02B7839
:10211000012BF5D143466A69A9686868B847EFE7BB
:10212000BDE8F081B40B4020940C402035144000F1
:1021300010B58AB0114C4FF4806200212046104B3C
:102140009847104B9847104B9847104B984720469C
:102150000F4B98470F4B1B880F4A12880F4909787D
:1021600000910F4902A80F4CA047C3B202AA012157
:1021700000200D4CA0470AB010BD00BF181240202F
:10218000A12640008D204000B1204000E120400009
:1021900079114000780C4020740C40207C0C4020C9
:1021A000FC2043007D274000B9124000F8B5104CD8
:1021B0000123104AA16860680F4FB8470F4E3046A0
:1021C0000F4DA84701230F4AA1686068B847304601
:1021D000A84701230C4AA1686068B8473046A84761
:1021E00001230A4AA1686068B8473046A847F8BD8D
:1021F0007C0C4020CC1C43003514400020A107007B
:10220000CD1B4000F41C43001C1D4300441D430033
:1022100038B5134B42001118C9005D1800245C54F6
:102220006C60AC600F4B1B78012B04D8012B0DD0D8
:102230000C4B187838BD0C4B98470A4C2189A08864
:102240000A4B98472378013B2370F1E7064B9847E8
:10225000044C2189A088054B984700232370E7E7A9
:10226000B40B40207C0C402051024000AD214000C6
:102270002DE9F84F4A4F4B4E4FF00009DFF840A1CF
:10228000DFF840B14CE0BB68082B06D9013BBB60CE
:10229000082B02D9444C002507E0002388F80030C1
:1022A00042E001351C340C2D3ED02378012BF8D1AF
:1022B000D8F80C30D8F8042002EB530292B2A1886F
:1022C000E3680B44023B9BB29A42EAD8023189B2DE
:1022D0008A42E6D3B8F80810228923691344023BE6
:1022E0009BB29942DDD8023292B29142D9D35FFAC1
:1022F00089F1E8B2D0470028D3D12C4B9847BBF8DE
:1023000000300133ABF80030294B9847C9E7002370
:10231000137009F1010918371836B9F1080F3CD0CC
:10232000B8463B78012BAED032463378012BF0D142
:10233000B368316958183F28E9D80133B3600B44BA
:102340003F2BE4D8F368716801EB530189B2194B54
:102350009888DB680344023B9BB29942D9D802308B
:1023600080B28142D5D3B36832691A4492B2114B1C
:1023700019891B690B44023B9BB29A42C9D80231AE
:1023800089B28A42C5D35FFA89F00B4B984700287F
:10239000BFD10122094B1A70BBE7BDE8F88F00BF1F
:1023A000940C4020B40B4020640A40208D02400071
:1023B000091C40007C0C402011224000760C40207B
:1023C000851F4000740C40202DE9F843354B984799
:1023D000354B9847354B9847354B9847354B984781
:1023E000354B9847354B9847354B9847354B984771
:1023F000354B9847354B9847354B9847354B984761
:10240000354B9847354EDFF80C91354C354FDFF89A
:1024100008813AE0C8474FF4FA60A04738E03A46EE
:1024200003210220A8474FF47A70A0472E4A0321C7
:102430000220A8474FF47A70A047244B9847B04732
:102440000128ECD0294B9847012823D0284B9847E6
:10245000C0F10F035B009BB2052B38BF0523D8F8F2
:102460000010B1FBF3F203FB1213C3B1214B9847E9
:10247000214B9847214B9847214B9847D8F800307B
:102480000133C8F80030C820A047B0470128C1D0A8
:102490001C4DD4E71C4B98471C4B9847D6E71C4B68
:1024A0009847E3E7A102400011034000D91640001D
:1024B000FD1640007D17400045194000CD19400031
:1024C0000D164000E5144000B1104000C91C40004A
:1024D000CD014000F90F4000511F4000451F400052
:1024E0002919400010214300202143002D1F4000E6
:1024F0005D1F4000091D4000611D40007122400029
:1025000031214000B1114000391F4000B91E400088
:102510002520400079024000580D402070B50F4E34
:102520000F4D761BB61018BF002405D0013455F8A6
:10253000043B9847A642F9D10A4E0B4D761B2FF06B
:102540003FFFB61018BF002406D0013455F8043BF5
:102550009847A642F9D170BD70BD00BFCC2343009F
:10256000CC234300D4234300CC234300844641EAD8
:10257000000313F003036DD1403A41D351F8043BFB
:1025800040F8043B51F8043B40F8043B51F8043B4D
:1025900040F8043B51F8043B40F8043B51F8043B3D
:1025A00040F8043B51F8043B40F8043B51F8043B2D
:1025B00040F8043B51F8043B40F8043B51F8043B1D
:1025C00040F8043B51F8043B40F8043B51F8043B0D
:1025D00040F8043B51F8043B40F8043B51F8043BFD
:1025E00040F8043B51F8043B40F8043B51F8043BED
:1025F00040F8043B51F8043B40F8043B403ABDD25C
:10260000303211D351F8043B40F8043B51F8043BFD
:1026100040F8043B51F8043B40F8043B51F8043BBC
:1026200040F8043B103AEDD20C3205D351F8043B8C
:1026300040F8043B043AF9D2043208D0D2071CBF58
:1026400011F8013B00F8013B01D30B880380604681
:10265000704700BF082A13D38B078DD010F00303F7
:102660008AD0C3F10403D21ADB071CBF11F8013B67
:1026700000F8013B80D331F8023B20F8023B7BE7B6
:10268000043AD9D3013A11F8013B00F8013BF9D2E1
:102690000B7803704B7843708B788370604670477B
:1026A00070B4860746D0541E002A41D0CAB20346F1
:1026B00002E014F1FF343BD303F8012B9D07F8D15E
:1026C000032C2ED9CDB245EA05250F2C45EA054548
:1026D00019D903F110022646103E0F2E42F8105C65
:1026E00042F80C5C42F8085C42F8045C02F110020B
:1026F000F2D8A4F1100222F00F0204F00F041032FD
:10270000032C13440DD91E462246043A032A46F8E8
:10271000045BFAD8221F22F003020432134404F0AF
:1027200003042CB1C9B21C4403F8011B9C42FBD129
:1027300070BC704714460346C2E700BF10B40C4B90
:102740000C4819680C4CD1F8A820D1F8AC3000FB2B
:1027500002F004FB0300A2FB04230344013243F113
:102760000003C1E92A2323F0004010BC704700BFDA
:10277000080040202DF451582D7F954C0EB4F0B533
:102780009CB021AB0F4953F8042B019305466FF021
:102790000044086802954FF402774FF6FF7602A9CD
:1027A0000695ADF8147004940794ADF8166000F027
:1027B0000BF8029B00221A701CB0BDE8F04003B079
:1027C000704700BF080040202DE9F04FC3B00C4611
:1027D0000B9192460F930C9002F00EFA03681A9335
:1027E000184603F04DF8A3891990190603D52369FB
:1027F000002B01F0038000230DF1C80913931593FA
:1028000014932793269318931B930993CDF89490D0
:10281000C846169317939AF800305446E3B1252B17
:1028200002D119E0252B03D014F8013F002BF9D178
:10283000A4EB0A0585B1269B279AC8F800A00133AE
:102840002A44072BC8F80450279226937FDC08F10E
:102850000808099B2B4409932378002B7FD0002381
:102860001A468DF8773019460D939B464FF0FF308E
:1028700063780A9004F1010A0AF1010AA3F1200029
:10288000582800F2C183DFE810F03802BF03BF030D
:102890004002BF03BF03BF03BF03BF03BF03450223
:1028A0000302BF035D006B02BF0386029D039D030D
:1028B0009D039D039D039D039D039D039D03BF03F6
:1028C000BF03BF03BF03BF03BF03BF03BF03BF03F8
:1028D000BF0337035703BF035703BF03BF03BF0340
:1028E000BF039803BF03BF03AD03BF03BF03BF0311
:1028F000BF03BF035902BF03BF031E03BF03BF03D0
:10290000BF03BF03BF03BF03BF03BF03BF03BF03B7
:10291000C602DB025703570357038B02DB02BF03D8
:10292000BF039002BF039D02CC01B4020802BF03A3
:10293000E101BF037E00BF03BF030D020D980F939B
:1029400040420D904BF0040B9AF8003094E725AA12
:102950000B990C9803F002F840B9C84679E7279B19
:1029600023B10C980B9925AA02F0F8FF0B9B9B89C9
:1029700013F0400F099B18BF4FF0FF3309930998DC
:1029800043B0BDE8F08F1BF0200F119340F0DD81C4
:102990000F9A1BF0100F134640F06E851BF0400F8E
:1029A00000F06A8514880432002501230F92002765
:1029B0008DF877700A994A1C00F065822BF080022E
:1029C000079254EA050240F06482002940F03C84FA
:1029D000002B40F0D7841BF001030E9300F0048617
:1029E00042AE302306F8413D0A9B0E9A9342B8BF8F
:1029F000134608930023129317B1089B01330893E1
:102A0000079B13F00203109302D0089B0233089334
:102A1000079B13F0840540F00E830D9B089AA3EBEF
:102A2000020BBBF1000F40F30683BBF1100F279C94
:102A3000269A29DD43462146A84610270C9C0B9D6B
:102A400006E0ABF1100BBBF1100F03F1080318DD2A
:102A50000132B74826921031072A279183E8810076
:102A6000EFDD25AA2946204602F078FF00287FF4F2
:102A70007DAFABF1100BBBF1100F2799269A4B4697
:102A8000E6DC45460C4698460132A94B26925C444A
:102A9000072A279488E8080800F398849DF877703F
:102AA00008F1080877B1269B013301340DF1770155
:102AB0000122072B2794269388E8060000F3DB8386
:102AC00008F10808109B6BB1269B013302341EA944
:102AD0000222072B2794269388E8060000F3D6836A
:102AE00008F10808802D00F015830A9B0E9A9F1AA2
:102AF000002F36DD102F269B8E4D27DD42462146C6
:102B0000B0464FF0100B2E460C9C0B9D04E0103F7E
:102B1000102F02F1080215DD01331031072B279128
:102B2000269382E84008F2DD25AA2946204602F0D5
:102B300015FF00287FF41AAF103F102F2799269B0E
:102B40004A46E9DC35460C464646904601333C444D
:102B5000072B2794269388E8A00000F3818308F1CF
:102B60000808079BDF0500F16882269B0E99C8F8CC
:102B7000006001330C44072B2794C8F804102693F7
:102B800000F34D8308F10808079B5B073AD50D9BBE
:102B9000089A9D1A002D35DD102D269B20DD10266C
:102BA0000C9FDDF82CB004E0103D102D08F1080852
:102BB00016DD01335E4A26931034072B279488E8EC
:102BC0004400F1DD25AA5946384602F0C7FE002828
:102BD0007FF4CCAE103D102D279C269BC846E8DC28
:102BE0000133534A26932C44072B279488E824006A
:102BF00008DD25AA0B990C9802F0B0FE00287FF49E
:102C0000B5AE279C099B0D9A08998A42ACBF9B18C8
:102C10005B180993002C40F00D8300232693C846CF
:102C2000F9E511931BF0200340F0E3811BF0100243
:102C300040F02E841BF0400300F02A840F991346C5
:102C40000A4604320C880F920025B0E60F9A1193C1
:102C5000166800248DF87740151D002E00F0A78619
:102C60000A9A531C00F009862146304602F088FA81
:102C7000002800F0E186831B0E930A940F95CDF88F
:102C80001CB023EAE373089312949DF87770B3E6BF
:102C90009AF8003001222B21EEE54BF0200B9AF838
:102CA0000030E9E51193002A40F09587224B1893F4
:102CB0001BF0200F40F011810F9A1BF0100F1346EC
:102CC00040F0E1831BF0400F00F0DD8304331488F3
:102CD0000F9300251BF0010F00F00C8154EA05034F
:102CE00000F0088130239DF844208DF878308DF86D
:102CF00079204BF0020B022359E69AF800300029A4
:102D00007FF4BAAD01222021B6E54BF0010B9AF811
:102D10000030B1E50F9C23680D9318460028234628
:102D200003F10403FFF60AAE0F939AF80030A3E50F
:102D30007C2143008C2143005C2143004BF0100BAD
:102D40001BF0200F11933FF423AE0F9D073525F0A4
:102D5000070303F10802D3E900450F92012326E699
:102D60009AF800302A2B0AF1010400F02787A3F11A
:102D700030000928A24600F2AD8600231C461AF84E
:102D8000013B04EB840400EB4404A3F13000092868
:102D9000F5D90A9472E54BF0800B9AF800306BE598
:102DA0004BF0400B9AF8003066E59AF800306C2B37
:102DB00003BF9AF801304BF0200B0AF1010A4BF0E7
:102DC000100B59E5002A40F011871BF0200F40F04E
:102DD000F9841BF0100F40F0AC841BF0400F00F0A2
:102DE000A8840F9A136804320F92BDF824201A8029
:102DF00011E50F99B34B0C681893302278230431F6
:102E00008DF8793011934BF0020B0F9100258DF85E
:102E100078200223CBE50F9911930A688DF8A02042
:102E200000230A461F468DF87730043201230893A9
:102E3000CDF81CB00A9712970F920E9328AEDFE5DB
:102E40001193002A40F0EA861BF0200F5DD11BF0A1
:102E5000100F40F008831BF0400F00F004830F991F
:102E6000B1F900400431E51722462B460F91002AA4
:102E700073F1000358DB0A999DF877704A1C4FF0F4
:102E800001037FF49BAD54EA050200F0DF81CDF829
:102E90001CB0012B00F07B82022B40F006821898B8
:102EA0004E46230904F00F0143EA05732A091C4624
:102EB0001546435C06F8013D54EA0503F1D1A9EB40
:102EC00006030E9390E51193002A40F0A3867E4BF3
:102ED00018931BF0200F3FF4EFAE0F9D073525F040
:102EE000070303F108021BF0010F0F92D3E900451D
:102EF0007FF4F4AE02235AE51193002A40F086864F
:102F00004BF0100B1BF0200FA1D00F9D073525F0C3
:102F10000705D5E90023002A05F108011D4673F1D4
:102F200000030F911446A6DA2D27644265EB450590
:102F30008DF8777001233DE51193002A40F06286F9
:102F40000F9D073525F0070303F108020F921A6859
:102F500015925B681493149B159D23F0004428463A
:102F600021464FF0FF32594B03F0BEFD002840F0E0
:102F70004A83284621464FF0FF32544B03F096FD1A
:102F8000002840F0408315A80DC8149903F084FD73
:102F9000002840F030859DF877704D4E4D4B2BF05A
:102FA0008000079011980322002108920A91472877
:102FB000D8BF1E460E9212911EE54BF0080B9AF8F0
:102FC000003059E4A3F1300000231C461AF8013BFD
:102FD00004EB840400EB4404A3F130000928F5D984
:102FE0000D944BE44BF0100B11931BF020033FF4B6
:102FF0001DAE0F9D073525F0070303F10802D3E945
:1030000000450F920023D2E41193002A40F0E78597
:10301000119A002A3FF4A3AC002301211F46089116
:103020008DF8A020CDF81CB08DF877300A9312935C
:103030000E9128AEE4E4279C34E5119B652B40F308
:10304000A78015A80DC8149903F01CFD002800F0F6
:103050005081269B204AC8F8002001330134012208
:10306000072B27942693C8F8042000F36A8308F1FD
:1030700008081F9B139A279C934203DB079BDD07DD
:103080007FF582AD269B19991A9AC8F80020013362
:103090000C44072BC8F804102794269300F39E8352
:1030A00008F10808139B5E1E002E7FF76DAD102EF1
:1030B000269B0A4D40F3F58122461027DDF830B0FB
:1030C0000B9C13E05C21430048214300FFFFEF7F8E
:1030D0003C21430038214300782143008C214300E8
:1030E00008F10808103E102E40F3DA810133103247
:1030F000072B2792269388E8A000F1DD25AA214618
:10310000584602F02BFC00287FF430AC279A269B0F
:10311000C846E7E70D9B089A9F1A002F7FF7E5AC9A
:10312000102F269BB64D27DD42462146B0464FF074
:10313000100B2E460C9C0B9D04E0103F102F02F14B
:10314000080215DD01331031072B2791269382E801
:103150004008F2DD25AA2946204602F0FFFB0028A0
:103160007FF404AC103F102F2799269B4A46E9DCD8
:1031700035460C464646904601333C44072B27947F
:10318000269388E8A00000F3328208F10808ACE436
:10319000139B269F012B40F3FE810137013401234D
:1031A000072F27942697C8F80060C8F8043000F36A
:1031B000038208F10808199A1A9BC8F800300137F1
:1031C0001444072F27942697C8F8042000F30082A0
:1031D00008F1080815A80DC8149903F053FC139BB7
:1031E000002840F00181013B013701361C44072FC4
:1031F00026972794C8F80060C8F8043000F32781A8
:1032000008F108081B9AC8F804200137144421ABC0
:10321000072F27942697C8F800307FF7B3AC25AA6C
:103220000B990C9802F09AFB00287FF49FAB279C27
:10323000C846A9E425AA0B990C9802F08FFB002838
:103240003FF4EBACFFF792BBDDF81CB0012B00F0B4
:103250003481022B25D1CDF81CB0002400251EE6B8
:1032600025AA0B990C9802F079FB00287FF47EAB1D
:10327000279CC84675E425AA0B990C9802F06EFBB2
:1032800000287FF473AB279CC8461BE425AA0B9942
:103290000C9802F063FB00287FF468AB279CC846BB
:1032A00020E4CDF81CB000240025494600E031465A
:1032B000E20842EA4572E80804F0070305461446AE
:1032C000303354EA050201F8013C01F1FF36EED13A
:1032D000079AD2077FF5F3AD302B3FF4F0AD0239FA
:1032E000302306F8013CA9EB01030E930E46FFF7CD
:1032F0007BBB1F99002940F32E82129B139A9342A5
:10330000A8BF1346002B1F460DDD269BC8F80060A2
:1033100001333C44072B2794C8F80470269300F32C
:103320001F8308F10808129B002FA8BFDB1B002B8E
:103330001F4640F3D680102F269B314D40F3ED8180
:1033400042462146B0464FF0100B2E460C9C0B9D7A
:1033500004E00832103F102F40F3DB8101331031BD
:10336000072B2791269382E84008F2DD25AA2946FB
:10337000204602F0F3FA00287FF4F8AA2799269B4A
:103380004A46E7E70A9B0E934E46FFF72DBB002DFA
:1033900008BF0A2CC0F08F804E46204629460A22DC
:1033A000002303F0DFFB303206F8012D20462946CA
:1033B00000230A2203F0D6FB04460D4654EA050317
:1033C000EBD1A9EB06030E93FFF70EBB25AA0B99D1
:1033D0000C9802F0C3FA00287FF4C8AA9DF8777011
:1033E000279CC846FFF75EBB5E1E002E7FF70AAF24
:1033F000102E034D22DD22464FF0100B0C9C06E0F0
:103400008C214300103E102E08F1080815DD01370D
:103410001032072F2792269788E82008F2DD25AA88
:103420000B99204602F09AFA00287FF49FAA103EDA
:10343000102E279A269FC846E9DC144601373444EB
:10344000072F2794269788E860007FF7D9AE25AA32
:103450000B990C9802F082FA00287FF487AA279C27
:10346000269FC846CEE60F9A146813460433E51724
:103470000F9322462B46FAE404321C680F92012374
:103480000025FFF794BA1C6804330F93002521E44C
:103490000F990A4604320C680F920025FFF787BA8D
:1034A000144601333444072B2794269388E86000A0
:1034B0007FF768ABB3E6DDF81CB0CDF81CB042AEC8
:1034C0003034012306F8414D0E93FFF78DBA25AA3B
:1034D0000B990C9802F042FA00287FF447AA279C27
:1034E000C8461F9A139B9A4244DB079BD90741D4D5
:1034F000139B12989A1A1D1A9542A8BF1546002DC3
:103500000EDD2699C8F80450013106442C440729E1
:10351000C8F800602794269100F33B8208F1080860
:10352000002DACBF561B1646002E7FF72DAB102E7C
:10353000269BB04DB5DD22461027DDF830B00B9C40
:1035400004E008F10808103E102EA9DD0133103206
:10355000072B2792269388E8A000F2DD25AA2146B2
:10356000584602F0FBF900287FF400AA279A269B10
:10357000C846E8E7269B19981A99C8F80010013345
:103580000444072B2794C8F80400269300F3F58120
:1035900008F10808ACE7079BDA073FF5FEAD0137F5
:1035A00001340123072F27942697C8F80060C8F834
:1035B00004307FF725AE4AE725AA0B990C9802F054
:1035C000CDF900287FF4D2A9279C269FC846F2E5B2
:1035D00025AA0B990C9802F0C1F900287FF4C6A91E
:1035E000279C269FC846F5E54E46FFF7FDB925AA5C
:1035F0000B990C9802F0B2F900287FF4B7A9279C28
:10360000C846FFF772BA159C22462046149C2346F2
:10361000214603F069FA002840F086820A9B0133B4
:10362000119B23F020030E9300F0E281472B00F062
:103630001E814BF480730793149B1F1E159B0893E8
:10364000BBBF3B4603F1004700232D231093119B82
:10365000662B00F0BB81462B00F0DF800E9B089AA2
:10366000452B0CBF0A9B0A9D23A820A908BF5D1CFF
:10367000049003911FA802213B46029001950091FE
:103680000C9800F075FB119B672B064640F0E0811B
:103690001BF0010F00F046827419169A0898179BC8
:1036A000394603F0EFF9002840F06581239BA342DF
:1036B00006D230215A1C23921970239B9C42F9D8C0
:1036C0009B1B13930E9B472B00F0E980119B652BEE
:1036D00040F3CD81119B662B1F9B129300F09E81BE
:1036E000139B129A1946914200F38A811BF0010F35
:1036F00040F0138222EAE273089367230E9211933B
:10370000109B002B40F0C4800A939DF87770FFF760
:1037100073B935460C464646904601333C44072B68
:103720002794269388E8A0003FF7D1AE08F1080857
:10373000D7E60F9A136804320F92099A1A60FFF7BE
:103740006AB825AA0B990C9802F008F900287FF4B2
:103750000DA9C8468DE4269B274AC8F800200133EE
:1037600001340122072B27942693C8F8042072DC29
:1037700008F1080829B9139B1BB9079BD8077FF5E7
:1037800003AA269B19981A9AC8F80020013302460A
:103790002244072B2792C8F80400269300F38D815A
:1037A00008F108080029C0F265811399C8F8006083
:1037B00001338C18072B27942693C8F804107FF741
:1037C000E1A92CE50F9A09991368CD170846043230
:1037D00029460F92C3E90001FFF71DB825AA0B99EE
:1037E0000C9802F0BBF800287FF4C0A8279CC846BC
:1037F00058E400BF8C2143007821430040210C98FD
:1038000001F00CFA0B9A10601061002800F0F281B0
:103810000B9A40235361FEF7EEBF23A820A90A9C10
:10382000049003911FA803210290089A01943B463B
:1038300000910C9800F09CFA25460646119B462BF9
:1038400006EB05047FF429AF3378302B00F0788144
:103850001F9D2C4421E725AA0B990C9802F07EF8B5
:1038600000287FF483A81F99279CC84682E70A9BFB
:10387000002B08BF01230A93DBE630460A9401F0CF
:10388000FFFF0F950E90CDF81CB00346FFF7F9B976
:103890002D2700238DF877700A93FFF7AEB81F9B92
:1038A00012931A46033304DB0A9B19469142BFF672
:1038B00017AF119B023B11939DF844308DF8843073
:1038C000129B013B002B1F93BDBF129BC3F1010351
:1038D0002D222B22092B8DF8852040F316810DF126
:1038E00093042046AB4D00E0104685FB0312D91728
:1038F000C1EBA20101EB8102A3EB420230320929A4
:1039000000F8012C0B4600F1FF32EDDC30330238B9
:10391000D9B2844202F8011C40F265810DF18600A3
:10392000134601E013F8011B00F8011BA342F9D173
:1039300001339B1A0DF18602134421AA9B1A139A94
:103940001B93012A13440E9340F319810E9B199A7D
:1039500013440E9323EAE373089300231293CFE6F4
:1039600025AA0B990C9801F0F9FF00287EF4FEAF10
:10397000279CC846D7E42346A2E625AA0B990C98B3
:1039800001F0ECFF00287EF4F1AF1F9A279CC84697
:10399000AEE525AA0B990C9801F0E0FF00287EF413
:1039A000E5AF1F9A139B279C9A1AC846B8E50A9B55
:1039B0001296062B28BF06230A96374608930F95C2
:1039C000CDF81CB00E93744EFFF716B823A820A9AB
:1039D0000A9D049003911FA803210290089A019563
:1039E0003B4600910C9800F0C3F9064644192BE7BA
:1039F00006230A931DE62D278DF87770FFF7CDBAC1
:103A0000199A139B1344129A0E93002A40F3B08024
:103A100023EAE37308936723119371E6002B40F3C5
:103A2000C3800A9A002A40F099801BF0010F40F0F1
:103A3000958008930E9363E60A9B08930E930A9071
:103A40000F95CDF81CB012909DF87770FEF7D4BF9B
:103A5000119B472B7FF420AE1BF0010F7FF4EEAEDD
:103A6000239B9B1B13930E9B472B3FF418AF1F9B6D
:103A7000129321E74F421031484D2FDA1024DDF820
:103A800030B004E008F10808103F102F26DD0133A4
:103A90001032072B27922693C8F80050C8F804402C
:103AA000F0DD25AA0B99584601F058FF00287EF456
:103AB0005DAF279A269BC846E6E725AA0B990C9886
:103AC00001F04CFF00287EF451AF1F99279A269BE6
:103AD000C84667E600200A90FEF7D0BE01333A449C
:103AE000072B88E8A0002792269308F108087FF7A3
:103AF0005CAE25AA0B990C9801F030FF00287EF4EB
:103B000035AF279A269BC8464FE6303330228DF8D2
:103B100087308DF8862022AB0FE7129B199A134449
:103B20000E9375E7239BCBE5149B1D4E002BB6BF70
:103B30002D279DF877708DF877701A4BFFF72FBA05
:103B4000169A0898179B394602F09CFF00287FF4CC
:103B50007FAEC5F101051F952C449EE5129B199A75
:103B600013440A9A1A4422EAE2730E920893C7E5B4
:103B7000129B0E9AC3F101031A441346D0E71BF0BF
:103B8000010312937FF4E2AE0E9B23EAE3730893E2
:103B9000B6E500BF67666666702143008C2143006E
:103BA00044214300402143000A9B13B91BF0010F3D
:103BB00002D0199B0133D4E701233AE70F9D9AF80D
:103BC0000130286840EAE0700A9028460430A24696
:103BD0000F90FEF751BE8DF87710FFF767B88DF89C
:103BE0007710FFF715BA0DF18603A6E68DF877106A
:103BF000FFF7EBB80C9A0C2313604FF0FF330993D7
:103C0000FEF7BDBE8DF87710FFF79AB98DF87710E3
:103C1000FFF776B98DF87710FFF759B98DF877105F
:103C2000FFF712B9024B13B1024800F005B8704714
:103C300000000000C54B4000002301461A4618460C
:103C400001F00ABF02690B69934200F38D802DE9F0
:103C5000F04F03F1FF3801F1140700F1140B57F88E
:103C600028205BF828304FEA880483B00132B3FB88
:103C7000F2F90BEB0403009407EB040A0193B9F18A
:103C8000000F39D000252E46BC46DE465CF8044BBA
:103C9000DEF80030A2B209FB0255220C2C0C09FB05
:103CA0000242ADB2751B96B2C6EB134615FA83F30A
:103CB00006EB23469BB243EA0643E2454FEA124530
:103CC0004EF8043B4FEA2646E0D2009B5BF80330F7
:103CD00093B9019C231F9B450CD254F8043C4BB96B
:103CE000A4F1080302E01A68043B1AB99B4508F1E5
:103CF000FF38F8D3C0F81080044601F09BFC002880
:103D00002EDB09F101095D46002357F8041B2868E2
:103D10008AB29A1A0B0C12FA80F2C3EB104303EB2F
:103D2000224392B242EA0342BA4545F8042B4FEAD5
:103D30002343EAD25BF828200BEB880382B91A1FD1
:103D400093450BD253F8042C42B9083B02E01A68A1
:103D5000043B1AB99B4508F1FF38F8D3C4F810802A
:103D6000484603B0BDE8F08F002070470000000017
:103D70002DE9F04F016C9BB00446279E92469B466E
:103D800041B1426C4A60012393408B6001F07AFAA2
:103D900000232364BBF1000F5D4635DB0023336055
:103DA0009D4BAB4315D0504659460022002302F0EC
:103DB00069FE804600282DD0269A01231360289B97
:103DC000002B00F0BD809548186001381BB0BDE89D
:103DD000F08F269A42F20F731360BAF1000F0DD1E3
:103DE000C5F3130555B9289B8D48002BEED000F183
:103DF0000803289A13601BB0BDE8F08F289B894800
:103E0000002BE3D0C31CF4E701232BF00045336003
:103E1000AB46C5E718AA19AB0192009352465B4620
:103E2000204601F0A7FC2B0D814671D0CBF3130285
:103E300042F07F51189FCDF850805046A3F2FF36D4
:103E400041F440110022784B02F000FA6CA3D3E950
:103E5000002302F0AFFB6CA3D3E9002302F0F8F9D2
:103E6000CDE90201304602F03FFB69A3D3E900230C
:103E700002F0A0FB02460B46DDE9020102F0E8F980
:103E8000CDE9040102F046FE002202900023DDE9A4
:103E9000040102F001FE002840F07381029D162DFE
:103EA00000F25D81614B03EBC503D3E9000152468B
:103EB0005B4602F00FFE002800F0C5816B1E0293E6
:103EC00000230E93BF1B7B1E069300F15481002339
:103ED0000893029B002BC0F24581069A0D93114670
:103EE0001944002306910C93249B092B2AD8052BF7
:103EF00040F35B86043B24930025249B023B032B69
:103F000000F24286DFE813F0D403C902DF03610444
:103F1000189F199E3E4406F23243202B40F38E81B7
:103F2000C3F1400306F212409D402AFA00F02843F4
:103F300002F0CAFA0123013EA1F1F871149381E75E
:103F40003B4843E7002161642046259101F074F964
:103F50004FF0FF330A93259A0F93012304902064B6
:103F600024920B93199B002BC0F2D980029A0E2A3F
:103F700000F3D5802D4B03EBC203D3E90023CDE939
:103F80000823259B002BC0F2BA83DDE90856504672
:103F90002A463346594602F037FC02F0BBFD804604
:103FA00002F0A2FA2A46334602F004FB0B46024610
:103FB0005946504602F04AF9049D08F130032B702F
:103FC0000A9B012B06460F4605F1010568D0002229
:103FD000184B02F0EFFA0022002306460F4602F0CB
:103FE00051FD002840F08880CDF82C904FF0000A59
:103FF000DFF840B00C94DDE9088928E0AFF30080D9
:1040000061436F63A787D23FB3C8608B288AC63FDE
:10401000FB799F501344D33F0000F07F7921430088
:104020009C214300A82143000000F83FD821430011
:10403000782143000000244002F0BCFA0022002353
:1040400006460F4602F01EFD002840F0C18342469E
:104050004B463046394602F0D7FB02F05BFD044682
:1040600002F042FA42464B4602F0A4FA02460B46E0
:104070003046394602F0EAF804F1300E049E05F8A5
:1040800001EBA5EB060E0A9EB645CDE906015246A8
:104090005B46D1D1A046DDF82C900C9C06460F461D
:1040A00032463B463046394602F0D2F806460F46C5
:1040B00002460B46DDE9080102F0EEFC48B9324643
:1040C0003B46DDE9080102F0DDFCA8B118F0010F64
:1040D00012D015F8018C049A6B1E04E09A4200F08D
:1040E000018413F8018DB8F1390F03F10105F5D002
:1040F00008F1010883F800804946204601F0C2F823
:104100000022029B2A70269A01331360289B002B01
:1041100000F09E8304981D601BB0BDE8F08F0B9AE1
:10412000002A3ED0249A012A40F311830A9B0C9A5C
:104130005F1EBA42C0F28F83D71B0A9B002BC0F2CE
:104140008B84089D0A9B089A1A440892069A0121BA
:104150001A442046069201F02FF9064624E0012376
:104160000E93AFE6089A029BD21A5B420C9300238F
:1041700008920D93B8E6C7F1010308930023069354
:10418000A7E6029D284602F0AFF902460B46DDE99C
:10419000040102F077FC00287FF480AE6B1E0293CE
:1041A0007CE60C9F089D0B9E002D0CDD06990029D6
:1041B0000B4608DDA942089AA8BF2B46D21AED1A71
:1041C000CB1A089206930C9BD3B10B9B002B00F0EB
:1041D000B782002F10DD31463A46204601F088F9BB
:1041E0004A4601460646204601F0F0F84946804618
:1041F000204601F047F8C1460C9BDA1B40F0A18233
:104200000121204601F0D8F80D9B002B80461CDDD3
:1042100001461A46204601F06BF9249B012B80468B
:1042200040F3548200230C93D8F8103008EB83033A
:10423000186901F071F8C0F1200010E0C3F1200509
:104240000AFA05F074E60E903CE6249B012B40F33D
:10425000878200230C930D9B0120002BE4D1069A4A
:10426000104410F01F0000F0A180C0F12003042BC7
:1042700040F39E84089BC0F11C000344089313463E
:10428000034405440693089B002B05DD49461A4666
:10429000204601F07DF98146069B002B05DD414655
:1042A0001A46204601F074F980460E9B002B40F020
:1042B00086800A9B002B40F366820B9B002B00F04C
:1042C0009880002D05DD31462A46204601F060F930
:1042D00006460C9B002B40F0378306960A9B049AF7
:1042E000DDF818B0013BD3180B930AF001030C93CF
:1042F0001746C24651464846FFF7A4FC31460546DC
:10430000484601F097F95A460A905146204601F076
:10431000ADF9C268804605F13003002A40F02B82D7
:1043200001464846089301F085F94146069020462B
:1043300000F0A8FF069A089B32B9249921B90C9A7B
:10434000002A00F0EF83249A0A990029C0F29F8284
:1043500005D1249919B90C99002900F09882002AF6
:1043600000F306830B9A3B7007F10108974245461C
:1043700000F00C83494600230A22204600F08CFFFF
:104380005E45814631464FF000034FF00A02204659
:1043900000F0EB8100F080FF5946064600230A2218
:1043A000204600F079FF47468346A3E71C20089B80
:1043B00003440893069B03440544069363E7414680
:1043C000484601F037F90028BFF673AF029F49460F
:1043D00000230A222046013F029700F05DFF0B9B5D
:1043E0008146002B40F0B6830F9B002B40F3BF8328
:1043F0000A93DDF810B00A9F5D4602E000F04CFF22
:10440000814641464846FFF71DFC00F1300A05F899
:1044100001ABA5EB0B03BB424FF00A024FF00003C8
:1044200049462046EADB049B0A9A012AACBF9B1846
:1044300001331D464FF0000B49460122204601F092
:10444000A7F84146814601F0F5F8002840F33D8287
:1044500015F8012C04996B1E04E08B4200F0AE812C
:1044600013F8012D392A03F10105F6D001321A7033
:104470004146204600F006FF002E3FF43DAEBBF162
:10448000000F05D0B34503D05946204600F0FAFE90
:104490003146204600F0F6FE2EE600230B93029BE9
:1044A000259A13440F930133012B1F461E460A938E
:1044B000B8BF01270021172F61640AD90122042304
:1044C0005B0003F114008742114602F10102F7D2AA
:1044D0006164204600F0B0FE0E2E049020643FF68A
:1044E00041AD002D3FF43EAD02990029CDE910AB5E
:1044F00040F30282B84B01F00F020D1103EBC2032F
:10450000E906D3E9006740F1AE81B44B5046594605
:10451000D3E9082302F078F9CDE9120105F00F057F
:104520004FF0030A8DB1DFF8B482EA0709D53046AF
:104530003946D8E9002302F03DF80AF1010A06469F
:104540000F466D1008F10808EFD13B463246DDE911
:10455000120102F059F9074688460E9B43B100222A
:104560009F4B3846414602F097FA002840F0868279
:10457000504601F0B9FF3A46434602F01BF8994B0A
:10458000002201F065FE0A9B0546A1F15076002B42
:1045900000F03E81029B15930A9B12930B9B002B0C
:1045A00000F0FA81129A8C4B8F4903EBC20353E956
:1045B0000223002002F028F92A46334601F046FE85
:1045C00082468B463846414602F0A4FA054601F081
:1045D0008BFF02460B463846414601F037FE303528
:1045E0005FFA85F8049D06460F4685F8008002466E
:1045F0000B4650465946013502F06CFA002854D15A
:1046000032463B460020764901F020FE02460B462A
:104610005046594602F05EFA002840F07082129A25
:10462000012A00F01181129B049ACDF8489013449E
:1046300099460DE000206A4901F008FE52465B46AB
:1046400002F02AFA002840F058824D4500F0FA8026
:10465000504659460022654B01F0ACFF0022634BE7
:1046600082468B463046394601F0A4FF0F46064687
:1046700002F050FA804601F037FF02460B46304602
:10468000394601F0E3FD08F130085FFA88F8524638
:104690005B4605F8018B06460F4602F0FDF93246EF
:1046A0003B460028C6D0DDF84890159B029323E5D1
:1046B00000230B93259B002B40F3DC801F461E46F6
:1046C0000F930A93F6E601230B93F3E7BAF1000F79
:1046D0007FF4A8ADCBF31303002B7FF4BAAD2BF01E
:1046E00000473F0D3F05002F00F00D82089B01336E
:1046F0000893069B0133069301230C93ABE50A9BB9
:10470000002B3FF742AC40F021820022384BDDE91C
:10471000080101F04FFF52465B4602F0D1F9DDF887
:1047200028804646002841D0259B049DDB43029308
:104730004146204600F0A6FD002E3FF4DDACA7E682
:104740000C9A4946204600F0D3FE814658E5149A5B
:10475000002A00F0878103F233430C9F089DF2E4A6
:10476000BAF1000F7FF475ADB4E700F095FD474650
:1047700006468346BEE501462046069300F082FDCC
:104780000122069BE0E5249B022B7FF796AD0A9B56
:10479000002BC9D141460522204600F07DFD01468F
:1047A0008046484600F046FF0028BDDD029A049985
:1047B0003123013202920B704D1CB9E7029A01328B
:1047C0000292049A3123137052E601230B9366E69A
:1047D000DDF82C900C9C8FE4D8214300B0214300DD
:1047E0000000F03F00001C400000E03F00002440BB
:1047F00000001440504601F077FE3A46434601F06F
:10480000D9FE0022C14B01F023FD0546A1F15076EF
:1048100041460022BE4B384601F018FD2A46334679
:1048200082468B4602F056F98046002840F01081FF
:104830002A4606F100435046594602F02DF918B1B8
:10484000464671E7DDF84890DDE910ABFFF78ABB1B
:104850000498FFF7BBBA0C9B0D9A0C97FB1A1A44ED
:104860000D92002769E4DDE910234FF0020ACDE93B
:10487000122357E60021012361642046259300F0AE
:10488000DBFC259B049020640A930F9329E6002A01
:10489000D046CDF818B09A4611DD4946012220468F
:1048A00000F076FE4146814600F0C4FE002840F349
:1048B0004681BAF1390F00F0068105F1310AB3469D
:1048C00087F800A07D1C069ED2E504D11AF0010FE6
:1048D00001D0BDE5154615F8013C302B05F1FF323E
:1048E000F8D0C5E5049930220A70029A15F8018CB7
:1048F00001320292FFF7FCBB00F0BB80029B5D42DD
:10490000844B05F00F0203EBC203D3E90023DDE97A
:10491000100101F04FFE2D110746884600F02C8152
:104920007D4E4FF0020AEB0709D538464146D6E9DD
:10493000002301F03FFE0AF1010A074688466D1088
:1049400006F10806EFD108E67168204600F074FC15
:10495000336902339A00054606F10C010C30FDF76D
:1049600005FE29460122204600F012FE0690B5E41D
:10497000392BCDF818B0D04600F0A58003F1010A1C
:10498000B34687F800A07D1C069E71E55A46D046C6
:10499000B3469A4616464FE5129B5E4901EBC301AA
:1049A0002A46334651E9020101F004FECDE9160121
:1049B0003846414602F0AEF8054601F095FD0B463B
:1049C00002464146384601F041FC129B0F460499CD
:1049D0003035012B0D70064601F1010526D0129BE2
:1049E000049ADFF83CB1CDF8489013444FF0000A28
:1049F000994652465B463046394601F0DBFD0F468C
:104A0000064602F087F8804601F06EFD08F1300896
:104A100002460B463046394601F018FC05F8018B7A
:104A20004D4506460F46E4D1DDF848903B4B002249
:104A3000DDE9160101F00CFC32463B4602F02CF891
:104A4000002846D0159B029315F8018CFFF743BB55
:104A50004FF000084646A9E6089B0A9A9D1A0023D3
:104A6000FFF771BB189B0C9F089DC3F13603FFF73E
:104A70006ABBDDE910784FF0020A6EE50A9B002B55
:104A80003FF4B8AE0F9B002B7FF7DEAE0022244B25
:104A90003846414601F08EFD074688460AF101007E
:104AA00001F022FD3A46434601F084FD0022174BF7
:104AB00001F0CEFB029A0F9B1293013A0546A1F139
:104AC000507615926AE53922B3463A70069E7D1CEF
:104AD000C0E4DDE916230020104901F0B7FB32469F
:104AE0003B4601F0F7FF08B9AEE6154615F8013C64
:104AF000302B05F1FF32F8D0D7E5DDF84890159B53
:104B00000293FFF7E8BA0C97FFF7A5BB00001C4023
:104B100000001440D8214300B02143000000E03FD2
:104B200000002440392BCDF818B0D046DDF828B06D
:104B30009A46C8D0BBF1000F3FF7BFAEBFE67FF487
:104B4000BEAE1AF0010F3FF4BAAEB2E64FF0000865
:104B50004646E9E5314600230A22204600F09CFB48
:104B60000F9B002B06460ADD0A93FFF7AABB249B86
:104B7000022B23DC0F9B3BE44FF0020AEDE4249B65
:104B8000022B1BDC0F9BEFE70025656429462046BE
:104B900000F052FB4FF0FF330A930F930123049070
:104BA000259520640B93FFF7DDB90125FFF7A5B923
:104BB0003FF469ABC0F13C00FFF7F9BB0F9B0A93D0
:104BC000E5E500BF38B50A4C0A4D641BA4100AD0B5
:104BD00004F18043013B05EB8305013C55F80439A2
:104BE0009847002CF9D1BDE838402DF0F3BB00BF49
:104BF000E4234300E0234300044A054B1268506B52
:104C0000002808BF1846F030704700BF0800402059
:104C10004C084020704700BF704700BF2DE9F04F9F
:104C200001F10B06162E83B0054640F29E8036F049
:104C3000070600F1BD80B14200F2BA8000F0F0FA40
:104C4000B6F5FC7FC0F09382730A00F0B880042BA5
:104C500000F27981B30903F1390003F1380EC30082
:104C6000BF4F3B44A3F108015C68A14206D10CE0B0
:104C7000002A80F2AA80E468A14206D0636823F08B
:104C800003039A1B0F2AF3DD70463C69DFF8E4E268
:104C9000744500F0AB81636823F003039A1B0F2A6D
:104CA00000F39081002AC7F814E0C7F810E080F202
:104CB0009D80B3F5007F80F06181DB0803F1010C7A
:104CC00099107A6857F83C80C4F8088001238B401B
:104CD00007EBCC0113430839E1607B6047F83C40A7
:104CE000C8F80C408210012494409C4200F28B8052
:104CF0001C4206D120F0030064001C4200F10400B5
:104D0000FAD007EBC009CC468046DCF80C309C4555
:104D100007D16DE1002A80F27B81DB689C4500F0C1
:104D20006781596821F003018A1B0F2AF2DDD3F84D
:104D30000CC0D3F8088000939C19284646F0010661
:104D400042F001055E60C8F80CC0CCF808807C61B8
:104D50003C61C4F80CE0C4F808E065605A5000F00B
:104D600065FA009B03F108041EE0102920D800F02A
:104D700057FA102618230220794F3B44A3F108026A
:104D80005C68944200F03D816368E168A66823F0A6
:104D90000303234428465A68F16042F001028E6002
:104DA0005A6000F043FA0834204603B0BDE8F08FA3
:104DB00000240C2320462B6003B0BDE8F08F402078
:104DC0004FF400734FF03F0E4AE72344E1685A68FE
:104DD000A66842F00102F16028468E605A6000F039
:104DE00025FA0834204603B0BDE8F08F2344284656
:104DF0005A6842F001025A6000F018FA083420465E
:104E000003B0BDE8F08FBC68636823F00308B045C9
:104E100004D3A8EB06030F2B00F38580DFF858912D
:104E2000504BD9F800201B680132334404EB080AC8
:104E300000F0558103F580530F3323F47F6B2BF083
:104E40000F0B5946284600F0F1FC411C024600F0C9
:104E5000FC80824500F2F780434B19685944196081
:104E600000F04D81D9F8000001301BBFA2EB0A0A07
:104E70005144C9F80020196012F0070100F01581B3
:104E8000C1F10800C1F580510244083102EB0B0961
:104E9000C9F30B09A1EB0909494628460193009281
:104EA00000F0C4FC431C9DE80C0000F04381801A14
:104EB000484440F001001968BA604944BC4250605F
:104EC000196017D0B8F10F0F40F2FB806068A8F1AD
:104ED0000C0222F0070204EB020E00F001004FF07A
:104EE000050C10430F2A6060CEF804C0CEF808C04D
:104EF00000F217811D4BBC681A68914288BF196087
:104F00001B4B1A689142626888BF196022F0030245
:104F10009642A2EB060301D80F2B04DC284600F0D2
:104F200085F9002440E7A21943F0010346F0010689
:104F300066602846BA60536000F078F9083420466D
:104F400003B0BDE8F08F142B71D9542B00F2A3806D
:104F5000330B03F16F0003F16E0EC30080E600BF58
:104F60003C0440208C0D40205C0D4020840D4020EE
:104F7000880D402044044020440840205A0A042A56
:104F80005BD9142A00F2AE8002F15C01C9005B32E9
:104F900007EB010C7958ACF1080C8C4500F08880C7
:104FA0004A6822F00302934273D289688C45F7D194
:104FB000DCF80C207B68E260C4F808C09460CCF890
:104FC0000C408FE6A11946F0010C42F00106C4F82E
:104FD00004C0284679613961C1F80CE0C1F808E0E5
:104FE0004E60E25000F022F90834DDE67B6879E695
:104FF00008F1010818F0030F0CF1080C7FF485AEDE
:105000002DE0DC68A34208BF02303FF43EAEBBE6B1
:1050100019441C464A68DB6854F8086F42F00102E4
:105020004A602846F3609E6000F000F9BCE603F198
:105030005C0003F15B0EC30012E69A0902F139012C
:10504000C9003832A4E7BC4254D0BC68626822F080
:1050500003025DE759F80839994540F0868010F061
:10506000030F00F1FF30F5D17B6823EA04037B6076
:1050700064009C423FF6C7AE002C3FF4C4AE1C4215
:1050800040467FF43EAE64001C4200F10400FAD0BA
:1050900037E68C468CE7B3F5AA7F15D8F30B03F1FE
:1050A000780003F1770EC300DAE54FF48051EDE6A6
:1050B0007B689210012101FA02F213437B60624681
:1050C00079E70123536029E740F25452934222D8F2
:1050D000B30C03F17D0003F17C0EC300C0E503F1C6
:1050E000100BAEE6542A29D81A0B02F16F01C90041
:1050F0006E324DE7204B196859441960B2E6CAF385
:105100000B0000287FF4AEAE08EB0B03BA6843F047
:1051100001035360EEE67F204FF47E734FF07E0E66
:105120009EE504F108012846009300F077FD009BFE
:105130001968DFE601204FF00009BCE6B2F5AA7F4E
:1051400005D8DA0B02F17801C900773220E740F286
:1051500054518A4205D89A0C02F17D01C9007C3273
:1051600016E74FF47E717E2212E77B6880E7F00835
:1051700006F1080300E600BF5C0D402000000000BF
:1051800001F0FF01102A2BDB10F0070F08D010F8F8
:10519000013B013A8B422DD010F0070F42B3F6D1FC
:1051A000F0B441EA012141EA014122F007047FF015
:1051B00000070023F0E80256083C85EA010586EA6C
:1051C000010685FA47F5A3FA87F586FA47F6A5FAA8
:1051D00087F68EB9EED1F0BC01F0FF0102F00702B4
:1051E00032B110F8013B013A83EA010313B1F8D15F
:1051F0000020704701387047002D06BF3546033840
:10520000073815F0010F07D1013015F4807F02BF78
:10521000013015F4C03F0130F0BC0138704700BFC9
:105220000148FFF7F7BC00BF281640200148FFF7F0
:10523000F3BC00BF28164020C36C70B505460C4671
:105240004BB153F8240080B1026843F824200023B6
:105250000361C36070BD2122042100F05FFCE8649B
:1052600003460028EDD1002070BD012101FA04F6AB
:10527000721D2846920000F051FC0028F3D04460D3
:105280008660E4E731B1C36C4A6853F822000860D5
:1052900043F82210704700BFF0B50C6983B00D468B
:1052A000064601F1140E0027DEF8000081B202FB71
:1052B0000133010C180C02FB01019BB2013703EB17
:1052C0000143BC424EF8043B4FEA1143ECDC3BB1D6
:1052D000AA68944207DA05EB8402013453612C6119
:1052E000284603B0F0BD6968019301313046FFF7ED
:1052F000A3FF2A69023205F10C01074692000C3027
:10530000FDF734F9F26C6968019B52F821002860BE
:1053100042F821503D46DEE7020C12040346B2B9C2
:105320000304102013F07F4F04BF1B02083013F05A
:10533000704F04BF1B01043013F0404F04BF9B00AB
:105340000230002B02DB5B0003D4202070470020DA
:10535000E8E70130704700BF036813F00702014619
:1053600007D0DA0721D4980721D49B080B600220CC
:10537000704798B298B1104613F0FF0F04BF1B0A94
:1053800008301A0704BF1B0904309A0704BF9B08A2
:105390000230DA0707D45B0804D1202070471B0CC9
:1053A0001020E9E701300B607047002070475B0870
:1053B0000B600120704700BF10B50C460121FFF7BC
:1053C0003BFF01224461026110BD00BF2DE9F04F97
:1053D0000C691569AC4283B08B46164604DA224646
:1053E000B3462C460E461546DBF80830DBF80410B1
:1053F00004EB05089845C8BF0131FFF71DFF00F118
:10540000140909EB880AD145009005D24B460021CA
:1054100043F8041B9A45FBD806F1140C0CEB8503EA
:105420000BF1140B9C450BEB840E4CD2CDF804A071
:105430009A46DCF80050AFB2EFB100214D465E460F
:105440000C4656F8042B286893B281B207FB03136D
:10545000120C010C234407FB021101EB13419BB218
:1054600043EA0143B64545F8043B4FEA1144E8D806
:105470002C60DCF800502D0C1DD0D9F800304846C7
:105480001C46594600220E88240C05FB0644224483
:105490009BB243EA024340F8043B51F8043B0468E2
:1054A0001B0CA6B205FB036303EB12438E454FEAC8
:1054B0001342E8D803600CF1040CE24509F1040939
:1054C000B7D8DDF804A0B8F1000F0BDD5AF8043CA2
:1054D000AAF1040A1BB105E05AF8043D13B9B8F16A
:1054E0000108F9D10098C0F8108003B0BDE8F08F32
:1054F00012F003032DE9F041144607462ED10D4664
:10550000A4101CD0BE6C96B3E3074FF0000806D47D
:10551000641014D03068A8B10646E307F8D53246C7
:1055200029463846FFF752FFB5B16A68FB6C641034
:1055300053F82210296043F822500546EAD1284644
:10554000BDE8F081324631463846FFF73FFF306014
:10555000C0F800800646E0E70546D9E75A1E0B4D25
:10556000002355F82220FFF797FE0546C8E70121E2
:105570003846FFF761FE40F27121012200234161AC
:1055800002610646B8640360BEE700BFA022430084
:105590002DE9F84391460A698B684FEA691404EBD8
:1055A000020808F101059D420E460746496804DDE0
:1055B0005B009D4201F10101FADC3846FFF73CFE39
:1055C000002C00F1140306DD03EB8402002143F8F4
:1055D000041B9A42FBD1346906F1140119F01F092A
:1055E00001EB840E1DD0C9F1200C00220C6804FAD6
:1055F00009F4144343F8044B51F8042B8E4522FA66
:105600000CF2F3D81A600AB108F10205FB6C72685B
:10561000013D53F822100561316043F82260BDE876
:10562000F883043B51F8042B43F8042F8E45F9D836
:10563000ECE700BF30B40B6905460069C01A0FD112
:105640009B001435143119442B4401E09D4207D2CC
:1056500053F8044D51F8042D9442F7D002D30120A1
:1056600030BC70474FF0FF30FAE700BF2DE9F04142
:105670000F690E4611697F1A002F904617D18900D5
:1056800006F1140502F1140E6B18714401E09D42FD
:105690005CD253F8042D51F8044DA242F7D05ED2EB
:1056A00033462C46464675469846012705E058DBAA
:1056B00006F1140508F1140400277168FFF7BCFD1A
:1056C000D8F810303669C76004EB830CA64605EBAA
:1056D000860700F1140400235EF8041B55F8048BC0
:1056E0008AB213FA88F3090C9A1AC1EB184303EB38
:1056F000224392B242EA0342F44544F8042B4FEAB3
:105700002343E9D8AF4217D9A446AE465EF8042B2E
:1057100013FA82F3191401EB12419BB243EA0142DE
:1057200077454CF8042B4FEA2143EFD8ED432F4443
:1057300027F0030704373C44043C22B954F8043DE5
:10574000013E002BFAD00661BDE8F0810021FFF791
:1057500073FD0122002302614361BDE8F0817446BC
:10576000ABE7334606F1140402F11405164601278F
:105770009846A2E72DE9F04182B001211C46C3F30F
:105780000A571546089EFFF757FDC4F313048046D9
:105790000FB144F4801401941DB302A840F8085DD1
:1057A000FFF7DAFD002834D19DE80C00C8F814207A
:1057B000002B0CBF01210221C8F81830C8F81010C6
:1057C000DFB908EB8103A0F2324030601869FFF7BF
:1057D000A3FD099BC0EB41101860404602B0BDE834
:1057E000F08101A8FFF7B8FD019BC8F81430012132
:1057F0002030C8F81010002FE3D0099BA7F23347E0
:105800000744C0F1350037601860404602B0BDE87B
:10581000F0819DE80A00C0F1200203FA02F20A4377
:10582000C3400193C8F81420C2E700BF38B5074C45
:105830000023054608462360FBF77EFB431C00D08F
:1058400038BD2368002BFBD02B6038BD3C164020B0
:105850000000000000000000000000000000000048
:105860000000000000000000000000000000000038
:105870000000000000000000000000000000000028
:1058800090F800F06DE9024520F007016FF0000C80
:1058900010F0070491F820F040F049804FF0000428
:1058A0006FF00700D1E9002391F840F000F1080003
:1058B00082FA4CF2A4FA8CF283FA4CF3A2FA8CF33B
:1058C0004BBBD1E9022382FA4CF200F10800A4FAA2
:1058D0008CF283FA4CF3A2FA8CF3E3B9D1E90423F6
:1058E00082FA4CF200F10800A4FA8CF283FA4CF32D
:1058F000A2FA8CF37BB9D1E9062301F1200182FAE7
:105900004CF200F10800A4FA8CF283FA4CF3A2FAEC
:105910008CF3002BC6D0002A04BF04301A4612BAFA
:10592000B2FA82F2FDE8024500EBD2007047D1E9FD
:10593000002304F00305C4F100004FEAC50514F08C
:10594000040F91F840F00CFA05F562EA05021CBF5D
:1059500063EA050362464FF00004A9E72DE9F04F22
:10596000936883B09046002B70D082460C4617682F
:105970008D68086842E0A38913F4906F2ED06569A2
:10598000216905EB4505A0EB010B05EBD5750BF186
:1059900001006D103044A8422A4684BF05462A46BD
:1059A0005B0538D511465046FFF738F900283CD042
:1059B0005A4621690190FCF7D9FDA289019B22F486
:1059C000906242F08002A281A5EB0B0203EB0B0078
:1059D000656123612060A2603546B3465A46494658
:1059E00000F018FAD8F80830A2682068551B58440F
:1059F0009E1BA5602060C8F808603EB37E683B46E9
:105A00000837002EFAD0AE42D3F80090AB46B2D29F
:105A10003546B346E2E7504600F060FA03460028F8
:105A2000D2D12169504600F0F9F80C23CAF80030B1
:105A3000A389002243F040034FF0FF30A381C8F850
:105A40000820C8F8042003B0BDE8F08F0020C8F893
:105A5000040003B0BDE8F08F2DE9F8432C4D064655
:105A6000286898460F469146FFF7D4F8294B1C68E2
:105A7000D4F84831002B3ED05A681F2A1CDC02F1B2
:105A8000010E76B103EB82010124C1F88890D3F8AE
:105A9000880194402043022EC3F88801C1F8088190
:105AA00023D00232C3F804E0286843F82270FFF7DD
:105AB000B3F80020BDE8F883174B0BB34FF4C87060
:105AC000AFF300800346D8B1D4F84821026000212A
:105AD00041600A46C4F848014FF0010EC0F8881131
